:020000040800F2
:1000000090750020E57D0008E97D0008EB7D000883
:10001000ED7D0008EF7D0008F17D00080000000084
:10002000000000000000000000000000F37D000858
:10003000F57D000800000000F77D0008F97D00084C
:10004000FB7D0008FB7D0008FB7D0008FB7D0008B0
:10005000FB7D0008FB7D0008FB7D0008FB7D0008A0
:10006000FB7D0008FB7D0008FB7D0008FB7D000890
:10007000FB7D0008FB7D00089367000817670008F8
:10008000FB7D0008FB7D0008FB7D0008FB7D000870
:10009000C3570008FB7D0008FB7D00085B7000086B
:1000A000FB7D0008FB7D0008FB7D0008FB7D000850
:1000B000896000083960000861600008FB7D000865
:1000C000FB7D0008FB7D0008FB7D0008FB7D000830
:1000D000FB7D0008A7670008FB7D0008FB7D00088A
:1000E000FB7D0008FB7D0008FB7D0008FB7D000810
:1000F000FB7D0008FB7D0008FB7D0008FB7D000800
:10010000FB7D0008FB7D0008FB7D0008FB7D0008EF
:10011000FB7D0008FB7D0008FB7D0008FB7D0008DF
:10012000FB7D0008FB7D0008FB7D0008FB7D0008CF
:1001300000F002F800F03AF80AA090E8000C8244BF
:100140008344AAF10107DA4501D100F02FF8AFF29C
:10015000090EBAE80F0013F0010F18BFFB1A43F0A5
:1001600001031847C8820000E8820000103A24BF4B
:1001700078C878C1FAD8520724BF30C830C144BF0C
:1001800004680C607047000000230024002500264E
:10019000103A28BF78C1FBD8520728BF30C148BFEA
:1001A0000B6070471FB51FBD10B510BD07F060FE96
:1001B0001146FFF7F7FF02F0E5FD07F07EFE03B4FE
:1001C000FFF7F2FF03BC07F085FE000030BF000020
:1001D00010B500210022FB4BDA72002021E0FA4A20
:1001E00002EB8002D2781143F74A02EB8002537887
:1001F000F54C421C04EB8202527893420FD0224607
:1002000002EB80025278521EC2EBC202EF4B03EBAC
:100210004202917211B10122EA4BDA720021421CB2
:10022000D0B2C828DBDB10BDF0B5034600265F1E48
:10023000C7EBC707DFF894C31CF8177007F0100767
:1002400007B9F0BD00205FE0DF4F17F8207017B945
:1002500006B9F6E75AE0DC4F17F820709F4250D1FC
:10026000D94F07EB80077F787F1EFDB2C5EBC5072E
:10027000DFF858C30CEB4707BF781F2F00D141E0D0
:10028000002401290AD0102911D1CF4F07EB800794
:10029000BF7807F0100707B1102419E0CA4F07EB29
:1002A0008007BF7807F0010707B1012410E0C64FAF
:1002B00007EB8007BF7807F0200707B12024C24F63
:1002C00007EB8007BF7807F0400707B1402400BF65
:1002D00000BF5AB9BC4F07EB8007FF78A743DFF890
:1002E000E8C20CEB800C8CF803700AE0B64F07EB09
:1002F0008007FF782743DFF8D0C20CEB800C8CF826
:10030000037000BF471CF8B2C8289DDB00BF00BFC8
:1003100097E7024600210BE0C1EB011000EB411012
:10032000AB4B185C904201D108467047481CC1B2E3
:100330001E29F1DBFF20F8E70246501EC0EBC0008B
:10034000A24B13F8100000F0010008B9FF2070471D
:1003500000210BE0C1EB011000EB41109C4B185C3D
:10036000904201D10846F2E7481CC1B21E29F1DBD8
:1003700000210AE0C1EB011000EB4110944B185C26
:1003800008B90846E3E7481CC1B21E29F2DBFF208A
:10039000DDE70146012906D0022906D0032906D04F
:1003A000042908D105E0002007E0202005E04020D6
:1003B00003E0602001E0002000BF00BF704701465D
:1003C000481EC0EBC000814B13F8100000F0030082
:1003D00008B900207047481EC0EBC0007B4B03EB00
:1003E0004000407800F060025211501CF2E770B5F6
:1003F00005463021284605F0ECFC044604F00800D0
:1004000008B9002070BD4021284605F0E2FC0446F2
:1004100004F0080008B90120F4E75021284605F04F
:10042000D8FC044604F0080008B90220EAE7FF20DF
:10043000E8E72DE9F04780460D4691461E464046C6
:10044000FFF7D5FF0746FF2F01D1BDE8F08727B1A1
:10045000012F04D0022F06D103E0002403E0102472
:1004600001E0202400BF00BF04F13300C1B2C5F396
:10047000C742404605F0A9FB04F13400C1B2C5F300
:10048000C722404605F0A1FB04F13100C1B2C5F31B
:10049000C702404605F099FB082000EB451000EB31
:1004A000D560C2B204F13200C1B2404605F08DFB06
:1004B00004F13500C1B23246404605F086FB04F136
:1004C0003600C1B233464A46404605F062FC04F1AC
:1004D0003000C1B208231A46404605F0C1FC00BFF7
:1004E000B3E7FF203B490968C1F3C06109B10120AE
:1004F000704738490968C1F3007109B10220F7E774
:1005000000BFF5E72DE9F04107460C461646FFF718
:10051000E8FF0546022D02DDFF20BDE8F081012144
:10052000384605F052F92C4901EB051108602A48BC
:1005300000EB05104660E0790006A17940EA014031
:10054000617940EA012120790143234800EB05103D
:10055000C160E0780006A17840EA0140617840EA95
:100560000120217808431C4901EB051188601A48D5
:1005700000EB0510006840F00101174800EB051082
:1005800001602846C9E72DE9F04107460C461546AB
:100590001E46012F04D0022F08D0032F0ED106E0F3
:1005A000324629462046FFF7ADFF07E000BF33463D
:1005B0002A4621463846FFF73CFF00BF00BFBDE892
:1005C000F0810000E41000204208002042010020D9
:1005D000620B002008640040806500402DE9F04374
:1005E00089B0044688469146E6784FF6FF7000EAE7
:1005F0000626A07806437710002537E007F00100B3
:10060000002830D02078617800231A46CDE9001008
:100610005521042004F0D9FCFE4948610821FD4819
:10062000401C04F0C6FC25B1012D07D0022D11D1CC
:1006300009E0FF21F748417181710BE0FF21F54886
:10064000C170017106E0FF20F2494870FF21F148B6
:10065000817000BF00BFEF480823421C416940463B
:10066000FFF791FF04E07F10681CC5B2032DC5DBC6
:1006700000BF3711E8484946826903A89047002522
:100680004FE007F00100002848D025B1012D15D01A
:10069000022D3BD126E02078617800231A46CDE96F
:1006A00000105521032004F090FCDA49486108222B
:1006B000211DD848401C04F06FFC27E020786178A9
:1006C00000231A46CDE900105521022004F07DFCDC
:1006D000D0494861082204F10C01CE48401C04F0C6
:1006E0005BFC13E02078617800231A46CDE9001006
:1006F0005521012004F069FCC6494861082204F133
:100700001401C448401C04F047FC00BF00BFC148AE
:100710000823421C41694046FFF735FF7F10681CE3
:10072000C5B2032DADDB09B0BDE8F08310B50346BB
:1007300000201846C00108444004104410BD2DE9B3
:10074000FC4107460C4616462078FFF738FE8046E7
:100750000120B249087020784870B148008848806C
:10076000552F05D1227841462046FFF737FF20E07C
:10077000227839460020FFF7D9FFA64948610125B4
:1007800005E0615D681E0DF80010681CC5B2B54239
:10079000F7DB701EC3B29F486A4641694046FFF7C7
:1007A000F2FE711ECAB29B4903234869694604F0F0
:1007B000A2FABDE8FC8101469A4A107800015278FD
:1007C00010444001974A927810444001954A1279AA
:1007D00010448001934A527910448001914A9279E1
:1007E00010440870020A4A70020C8A70020ECA7025
:1007F0007047FEB504460F468B48407900F0020072
:1008000008B1202500E00025072F2ED2DFE807F0F1
:10081000FB042E63C4DE94008DF80040601EC0EB24
:10082000C000824901EB400080788DF8010005F19D
:100830004000C0B28DF802007648C0788DF8030001
:1008400000208DF804008DF80500724800798DF8BD
:100850000600704840798DF807006E4880798DF861
:1008600008006C48C0798DF80900CCE08DF8004094
:10087000601EC0EBC0006D4901EB400080788DF830
:100880000100601EC0EBC00001EB4000407800F0AA
:100890000F002844C0B28DF802005E4840788DF801
:1008A00003005C48807800F007008DF80400002009
:1008B0008DF80500574800798DF8060055484079B5
:1008C0008DF80700534880798DF808005148C079A9
:1008D0008DF8090097E08DF80040601EC0EBC00065
:1008E000524901EB400080788DF80100494880783A
:1008F00005EB2010C0B28DF80200464840788DF814
:1009000003004448807800F00F008DF8040041484F
:10091000C0788DF805003F4800798DF806003D4805
:1009200040798DF807003B4880798DF808003948F8
:10093000C0798DF8090066E08DF80040601EC0EBBC
:10094000C0003A4901EB400080788DF80100314841
:1009500000792844C0B28DF802002E4840788DF806
:1009600003002C48807800F03F008DF804002948EF
:10097000C0788DF80500274840798DF80600254895
:1009800080798DF807002348C0798DF80800214848
:10099000007A8DF8090036E0234880788DF8000051
:1009A0001E208DF8010005F14000C0B28DF8020054
:1009B0001D4800798DF8030000208DF804008DF8A3
:1009C00005000DF10600FFF7F6FE1CE08DF8004073
:1009D000601EC0EBC000154901EB400080788DF827
:1009E000010005F11000C0B28DF80200002607E0FA
:1009F0000848401C815DF01C0DF80010701CC6B248
:100A0000072EF5DB00BF00BF0A21684604F0A5FAF7
:100A10000EE000001C000020EC6E00200000002012
:100A20001200002064690020E41000204201002030
:100A30008DF80A00FA49888A0B22694605F000FD04
:100A4000F748808A0B30F64988820846808AB0F5DC
:100A5000004F02DB40F2FD70888201F06BFDFEBDAD
:100A60002DE9F04107460E4614460025ED488078F2
:100A7000C0F3C1000544AD00EA488078C0F34110DE
:100A8000054405F00F053046FFF783FC2844C5B246
:100A9000601EC0EBC000E44901EB40004570601EE1
:100AA000C0EBC00001EB4000C078DE4949788842C5
:100AB0000CD1601EC0EBC000DB4901EB40000179A6
:100AC000D848807800F00700814222D0D54841788C
:100AD000601EC0EBC000D44A02EB4000C170D14898
:100AE000807800F00701601EC0EBC00002EB400000
:100AF00001710021601EC0EBC00002EB400041719B
:100B0000C748407900F0020018B102212046FFF7E3
:100B100070FEBDE8F0812DE9F04104460D46164611
:100B2000BF48007A08B1BDE8F081C048007800B144
:100B3000F9E7601EC0EBC000BB4901EB4000C07983
:100B4000052800DDEFE7601EC0EBC000B64901EBF1
:100B500040008079A84208D10021601EC0EBC0008F
:100B6000B14A02EB4000C171DDE7B148078800BF20
:100B7000384604F071F91428FADB601EC0EBC0009F
:100B8000A94901EB4000C079401CC1B2601EC0EB16
:100B9000C000A54A02EB4000C171601EC0EBC0005E
:100BA000114601EB4000807990B922465221002085
:100BB000FFF7BCFD9B4948612046FFF700FC8046DB
:100BC00098480023421C41694046FFF7DCFCAAE735
:100BD000002096490871C87086B9601EC0EBC0003D
:100BE000914901EB400081799048C278C078401C5F
:100BF0008E4BD87003F10800815402E0204601F0CA
:100C00009CFF8A48847000BF8DE7F8B505460E4604
:100C10001446224631460020FFF788FD814948618D
:100C2000601EC0EBC000804911F8100000F0040005
:100C300028B17C48406940F400407A494861601E10
:100C4000C0EBC000784901EB4000807A00F07F00E3
:100C500000907348807938B1724800236A46416930
:100C60002846FFF790FC06E06E4801236A4641697A
:100C70002846FFF788FCF8BD7CB505460C462246A1
:100C800023210020FFF752FD664948616948C07979
:100C90008DF800006748017A807A01EB4010C0B2FD
:100CA0008DF801006348407A8DF802006148C07AEF
:100CB0008DF803005F48007B8DF804005D48407BA1
:100CC0008DF80500574806236A4641692846FFF714
:100CD0005AFC5449032306224869694604F00BF87C
:100CE0007CBD30B502464E48407A08B1002030BD88
:100CF00051784FF6FF7000EA01211078084481B264
:100D0000C1F30B018C0901F03F03C4EB041003EBAA
:100D100080014848C08988420DDB4648C089401A96
:100D2000782806DB4348C58901F56160401B7828B7
:100D30000FDA0020DBE73F48C089081A782806DB75
:100D40003C48C08900F56160401A782801DA00202B
:100D5000CDE70120CBE72DE9F04306460F460EB95B
:100D6000BDE8F0833046FFF7E7FA0446FF2C00D1D8
:100D7000F6E7C4EB041000EB44102F490E5438780A
:100D80004FEA6009B9F1070F02D14FF0040801E002
:100D90004FF0060800250FE0681C395CC4EB041016
:100DA00000EB4410244A1044401C09EB490205EBB7
:100DB00042028154681CC5B24545EDDB00BFCFE758
:100DC00010B5002017494872002257211046FFF73E
:100DD000ADFC144948610846406940F40040486150
:100DE000002414E01548015D0E48401C00F8141062
:100DF00012481438025D6000401C0A49491C0A541C
:100E0000481E407A801C491E4872601CC4B20B48C0
:100E1000143890F82800A042E4DC012419E0000016
:100E2000E41000201C0000204201002034000020BB
:100E30001200002064690020620B002016110020BF
:100E4000FE48437A421C41692046FFF79CFB601C28
:100E5000C4B2042CF4DB10BD2DE9F05F82468B4652
:100E60000AF0FF08F648C169404688470446F5483D
:100E700010F82400FF2801D1BDE8F09FF14800F8E8
:100E80002480F1480088EF4901EB84014880ED4857
:100E900000EB8400407840F08000EA4901EB8401D7
:100EA000487000247FE01BF80490002777E00220C0
:100EB00000FB04803844401CC5B2681EC0EBC00073
:100EC000E24911F8100000F0010000B965E017B91F
:100ED0004FEA191601E009F00F0606F00C0020B3E6
:100EE000082823D00C2856D1681EC0EBC000D74973
:100EF00001EB4000407820F00301681EC0EBC00009
:100F0000D24A02EB40004170681EC0EBC00011469F
:100F100001EB4000407806F003010843691EC1EB75
:100F2000C10102EB4101487035E000BF06F002004C
:100F3000A8B1681EC0EBC000C44901EB4000407876
:100F400040F08001681EC0EBC000C04A02EB4000C8
:100F50004170102211462846FFF766F91AE006F0A4
:100F60000C00082805D106F0010220212846FFF7D1
:100F70005BF906F00C0068B906F0010028B1012207
:100F800011462846FFF750F904E0002201212846C7
:100F9000FFF74AF900BF00BF00BF781CC7B2022F9D
:100FA00085DB601CC4B2082CFFF67DAF00BF63E791
:100FB0002DE9F74F84B083468846CBF30360039056
:100FC0000BF0FF0002909E48C169029888470646D0
:100FD0009C4810F82600FF2802D107B0BDE8F08F2A
:100FE0009849029801F826009748008801EB86018D
:100FF0004880944800EB8600407840F0800091499A
:1010000001EB86014870DDE9021001EB4000401C55
:10101000C4B20026F7E0B0064FEA106909F10100FA
:1010200018F800704FF6FF7000EA072718F809005B
:10103000074309F1020018F80000019009F10300CC
:1010400018F800008009009009F1030018F800006A
:1010500000F03F0ABAF13F0F08D0601EC0EBC0009D
:101060007A4911F8100000F00100B8B9601EC0EB19
:10107000C000764901EB400080F802A0601EC0EB82
:10108000C00011F8100040F00201601EC0EBC0006B
:101090006E4A02F81010601CC4B2B2E0009800F072
:1010A000020050B3601EC0EBC000684901EB400075
:1010B000407840F08001601EC0EBC000634A02EB44
:1010C00040004170601EC0EBC000114611F81000D6
:1010D00020F00201601EC0EBC00002F810100021D9
:1010E000601EC0EBC00002EB4000C170601EC0EB90
:1010F000C00002EB4000017180E0601EC0EBC00048
:10110000524901EB4000407820F08001601EC0EBA6
:10111000C0004E4A02EB400041704D480188601EFD
:10112000C0EBC00002EB40008181601EC0EBC0003C
:10113000114601EB400080F802A00025009800F065
:10114000010078B30698FFF724F90543601EC0EB51
:10115000C0003E4901EB40004570601EC0EBC0007E
:1011600001EB400080781F2805D10122204601991B
:10117000FFF7D1FC04E0002220460199FFF7CBFCE9
:10118000601EC0EBC000314901EB4000407807F021
:1011900003010843611EC1EBC1012C4A02EB41016E
:1011A00048702BE0FFE7C7F3C1200543A806050EF2
:1011B000C7F34130054305F00F050698FFF7E9F83E
:1011C000054325F01005601EC0EBC0001F4901EB70
:1011D00040004570601EC0EBC0000A4602EB4000B4
:1011E000C770C7F30221601EC0EBC00002EB4000D5
:1011F0000171012220460199FFF78DFC601CC4B2E9
:1012000000BF701CC6B2022EFFF605AF00BFE4E6B9
:101210002DE9F047064688460027F4B20A480288BE
:10122000A8F1010005490A3121F810200348427A4B
:101230000023411C304603F05EFD0BE01C00002043
:10124000EC6E0020106F00201200002042010020F0
:1012500014000020C6F34645552D06D14246FE49EE
:101260003046FFF7A5FEBDE8F087562D04D1FA49B8
:101270003046FFF7F1FDF6E7572D02D1FFF7A0FD4D
:10128000F1E704B9EFE70B2D27D00C2D25D0552D14
:1012900023D0562D21D0572D1FD0C6F30521601E17
:1012A000C0EBC000ED4A02EB40008170EC480188C1
:1012B000601EC0EBC00002EB40008181601EC0EBED
:1012C000C000114601EB4000407820F08001601E14
:1012D000C0EBC00002EB40004170601EC0EBC000DC
:1012E000DE4911F8100000F00100D8B9601EC0EB13
:1012F000C00011F8100040F00201601EC0EBC000F9
:10130000D64A02F81010224650210020FFF70EFAAC
:1013100082460023D04A51464046FFF734F9102D4B
:1013200000DAA0E7CF480078012809D1CD494888E4
:1013300003F092FDB0F57A7F02DD0020C949087004
:10134000092D7CD008DC092D7AD2DFE805F0791868
:101350003D56FDFCFBFAF9000F2D72D008DC0A2D7A
:1013600070D00B2D6FD00D2D6ED00E2D68D115E3E2
:10137000102D6AD0392D69D0512DF7D193E306F0A5
:10138000807028B1012211462046FEF74DFF04E08F
:10139000002201212046FEF747FFAF48801CFFF7DF
:1013A000A0FC012803D121464046FFF765FC2246F8
:1013B00041463046FFF754FBA748401EC179012241
:1013C0002046FFF7A8FBA7E3224610214046FFF77F
:1013D0001CFCA148401E4078FF2809D19E48401EB1
:1013E0008078FF2804D101212046FFF702FA93E319
:1013F00002212046FFF7FDF98EE34046FEF7C9FFC4
:101400003844C7B2601EC0EBC000944901EB4000F5
:10141000407800F00E01601EC0EBC0008F4A02EB66
:1014200040004170601EC0EBC000114601EB40005F
:1014300040783844C1B2601EC0EBC00007E0F2E162
:1014400063E3FAE272E276E276E2FCE217E302EBB1
:1014500040004170601EC0EBC000114601EB40002F
:101460008078212817D17C48401E4178601EC0EB4F
:10147000C00002EB4000C1707748401E8178601EBA
:10148000C0EBC00002EB4000017122461021404633
:10149000FFF7BBFB7FE006F0807050B3601EC0EB2F
:1014A000C0006E4901EB4000807900F0080050B1A7
:1014B0006948401E807800F0010020B140221146AA
:1014C0002046FEF7B1FE601EC0EBC000634901EB91
:1014D0004000807900F0040048B35F48401E8078E7
:1014E00000F0010018BB202211462046FEF79CFEAA
:1014F0001DE0601EC0EBC000584901EB4000807940
:1015000000F0080020B1002240212046FEF78CFEAA
:10151000601EC0EBC000514901EB4000807900F033
:10152000040020B1002220212046FEF77DFE601E2F
:10153000C0EBC000494901EB40004178464804E057
:1015400070E111E1CBE072E026E0401E807800F00F
:1015500001000844C1B2601EC0EBC0003F4A02EB6C
:10156000400041700021601EC0EBC00002EB400053
:10157000C170601EC0EBC00002EB4000017122464A
:1015800010214046FFF741FB3348401EC17800223E
:101590002046FFF7C0FABFE22F48FFF7A2FB012861
:1015A00004D121464046FFF767FB5CE62246102146
:1015B0004046FFF72AFB4046FEF7EBFE611EC1EBFB
:1015C000C101264A02EB41014870601EC0EBC00019
:1015D000114601EB4000807A68B1601EC0EBC0008C
:1015E00001EB4000407840F00201601EC0EBC000FB
:1015F00002EB400041700021601EC0EBC000174AA2
:1016000002EB4000C170601EC0EBC00002EB400066
:101610000171601EC0EBC00002EB400041710E483A
:10162000401E417901222046FFF775FA74E22246F6
:1016300010214046FFF7E9FA0748401E4078FF288E
:101640001AD10548401E8078FF2815D10121204677
:10165000FFF7CFF8002107E01D0000204201002025
:101660001400002000000020601EC0EBC000FE4AF5
:1016700002EB4000C1704FE2601EC0EBC000FA49AF
:1016800001EB4000407800F00F01601EC0EBC0008D
:10169000F54A02EB400041704046FEF77AFE611EBB
:1016A000C1EBC101F04A02EB410149780844C1B2E3
:1016B000601EC0EBC00002EB40004170EB48407A76
:1016C000072803D103212046FFF793F8E748407A23
:1016D000082803D106212046FFF78BF81CE222469A
:1016E00010214046FFF791FA601EC0EBC000DE49B2
:1016F00001EB4000407800F00E01601EC0EBC0001E
:10170000D94A02EB400041704046FEF742FED749FD
:10171000497801F001010144601EC0EBC000D24ACB
:1017200002EB400040780844C1B2601EC0EBC0002C
:1017300002EB400041700021601EC0EBC00002EBD4
:101740004000C170601EC0EBC00002EB40000171A0
:10175000601EC0EBC00002EB40004171C349491C50
:101760002046FFF7F8FAD7E14046FEF712FE38446C
:10177000C7B2601EC0EBC000BB4901EB400040781F
:1017800000F00C01601EC0EBC000B74A02EB400045
:101790004170601EC0EBC000114601EB4000407874
:1017A000B249497807EBE1110844C1B2601EC0EBB1
:1017B000C00002EB40004170601EC0EBC00011464B
:1017C00001EB4000807A00F07F0068B1601EC0EB42
:1017D000C00001EB4000407840F00201601EC0EB09
:1017E000C00002EB40004170A048407800F07F014B
:1017F000601EC0EBC0009C4A02EB4000C17000219B
:10180000601EC0EBC00002EB4000017122461021B7
:101810004046FFF7FAF99548817901222046FFF703
:101820007AF979E178E19148C01CFFF75AFA01286A
:1018300004D121464046FFF71FFA04E0224610215A
:101840004046FFF7E2F989484078FF2808D18748E9
:101850008078FF2804D101212046FEF7CAFF5BE112
:101860004046FEF796FD3844C7B2601EC0EBC0008C
:101870007D4901EB4000407800F08001601EC0EB24
:10188000C000794A02EB40004170601EC0EBC0000E
:10189000114601EB4000807A00F07F00C8B1734828
:1018A000407800F00C00A0B9601EC0EBC00001EB56
:1018B000400041786D48407800F01E003844401CDC
:1018C0000844C1B2601EC0EBC00002EB4000417092
:1018D00014E0601EC0EBC000634901EB400040789B
:1018E0006249497801F01F0139440844C1B2601EC1
:1018F000C0EBC0005C4A02EB400041705B4841789D
:10190000601EC0EBC000584A02EB4000C17057484F
:101910008178601EC0EBC00002EB400001715348AB
:10192000C17901222046FFF7F6F8F5E005212046AF
:10193000FEF75FFFF0E0EFE00021601EC0EBC000AB
:10194000494A02EB400041704046FEF722FD611E0D
:10195000C1EBC101444A02EB410149780844C1B2DC
:10196000601EC0EBC00002EB400041700021601E11
:10197000C0EBC00002EB40000171601EC0EBC00074
:1019800002EB400041713948437A394832463749C1
:10199000491CD0F800C02046E047BDE0334890F82D
:1019A00001906FEA090000F0FF0909F001092F48D2
:1019B000407800F0FE002D4948700846407840EA23
:1019C000090048700021601EC0EBC000264A02EBEF
:1019D000400041704046FEF7DCFC2449497801F0A4
:1019E00001010144601EC0EBC0001F4A02EB400031
:1019F00040780844C1B2601EC0EBC00002EB40005A
:101A000041700021601EC0EBC00002EB4000C170BD
:101A1000601EC0EBC00002EB40000171601EC0EB15
:101A2000C00002EB400041711048427A10480F4953
:101A3000491C4368204698476EE02246414630469E
:101A4000FFF70EF868E00B480078012816D1094826
:101A50004078A04212D100220449491C102003F012
:101A6000FBF80020034907E0420100201C00002091
:101A7000EC6E00200000002008704DE04CE0601E7D
:101A8000C0EBC000FE4901EB4000807A00F07F010E
:101A9000601EC0EBC000FA4A02EB400081720020D9
:101AA000F849487038E00020F749C8710846407886
:101AB00018B108464078032804D10020F249087084
:101AC000C87029E0F0480079EF4989790844EE4967
:101AD0000871084600790830C978884203DA022084
:101AE000E949487002E00320E7494870E648407938
:101AF000401CE549487108464079032801DD002073
:101B000048710120E049087006E0E048427A411C33
:101B1000284603F0A1F800BF00BF00BF45E570B53F
:101B200004462C21204604F054F9054605F0010036
:101B3000002861D0D6480288601ED4490A3121F8B5
:101B400010206521204604F044F9D0494872084627
:101B5000407A082801DB082048726221204604F000
:101B600038F900F00300C94948610846406900029D
:101B700048616321204604F02CF9C44949690844AE
:101B8000C249486108464069000248616421204614
:101B900004F01FF9BD4949690844BC494861084639
:101BA0004069000248616121204604F012F9B749FA
:101BB00049690844B549486108464069C000486120
:101BC0006221204604F005F9B049496901EB601033
:101BD000AE4948610846437A421C6621204604F01B
:101BE00010F9AA4948692146FFF712FB0023212278
:101BF0002C21204604F034F905F00200002861D0C1
:101C0000A3480288601EA1490A3121F810207521DD
:101C1000204604F0DEF89D4948720846407A0828BC
:101C200001DB082048727221204604F0D2F800F04F
:101C300003009649486108464069000248617321E3
:101C4000204604F0C6F89149496908448F49486123
:101C500008464069000248617421204604F0B9F842
:101C60008A4949690844894948610846406900022F
:101C700048617121204604F0ACF884494969084460
:101C80008249486108464069C00048617221204687
:101C900004F09FF87D49496901EB60107B49486178
:101CA0000846437A421C7621204604F0AAF8774978
:101CB00048692146FFF7ACFA002322222C21204656
:101CC00004F0CEF870BD10B57048007810B101284E
:101CD00039D109E003F0B8FE04F008F804F034F854
:101CE00001206A49087032E003F088FD0220FFF706
:101CF00016FF0320FFF713FF002421E063490A3198
:101D000031F8140003F0A8F847F23051884215DD8D
:101D10005F4801885D480A3020F8141024B1012C76
:101D200005D0022C09D105E003F08EFE05E003F09A
:101D3000DDFF02E004F008F800BF00BF601CC4B281
:101D4000032CDBDB03E000205049087000BF00BF1C
:101D500010BD7CB54C48007820B1012817D002286E
:101D60007ED1B5E04848C07800B9CCE04648C0789C
:101D7000082803DC00204449487002E00120424961
:101D8000487000204049487101200870BBE03E487F
:101D9000407898B93C48827851210020FEF7C6FC73
:101DA0003A4948613848C278012300F1080100200F
:101DB00002F0A1FF3448C078334988713248407836
:101DC000012814D13048C278012300F10801002015
:101DD00002F091FF2C498A784979091DC8B2512136
:101DE000FEF7A4FC29494861082027498871264844
:101DF000407802280CD124498A7849790831C8B240
:101E00005121FEF793FC2149486108201E49887141
:101E10001D484078032810D11B498A7849790C3134
:101E2000C8B25121FEF782FC184948611648C078B3
:101E300015490979401A14498871002409E01248AB
:101E40000079011910480830405C0DF80400601C4E
:101E5000C4B20D488079A042F1DC0D48008800E052
:101E60004DE00949A1F8020100BF0749B1F802019C
:101E700002F0F2FF1428F8DB02200349087009E0A1
:101E80004201002004000020340000201C0000203B
:101E900012000020CC480088A1F802018878FEF7E3
:101EA0008EFA0546C9488379C9486A464169284679
:101EB000FEF769FBC5498A79C54903234869694624
:101EC00002F019FFC148C079401CC049C8711AE02E
:101ED000BE48C079052805DD0020BC49C8710870DE
:101EE000C8700871B949B1F8020102F0B5FF40F2BB
:101EF000DC51884202DD0020B449087003E0002074
:101F0000B249087000BF00BF7CBD38B5B148047845
:101F10003BE0C4EBC400B04901EB4000807A88B3D9
:101F2000C4EBC40001EB4000407800F0800048BBE7
:101F3000601CC2B239210020FEF7F8FBA4494861B9
:101F4000C4EBC400A44901EB4000807A00F07F009C
:101F50000090611CC8B2FEF732FA05469C48012386
:101F60006A4641692846FEF70EFB9A4804700078DD
:101F7000401C9849087008460078802801D100204C
:101F8000087038BDFFE7601CC4B2802CC1DB0024A0
:101F90003BE0C4EBC400904901EB4000807A88B379
:101FA000C4EBC40001EB4000407800F0800048BB67
:101FB000601CC2B239210020FEF7B8FB8449486199
:101FC000C4EBC400844901EB4000807A00F07F003C
:101FD0000090611CC8B2FEF7F2F905467C48012367
:101FE0006A4641692846FEF7CEFA7A4804700078BE
:101FF000401C7849087008460078802801D10020EC
:102000000870BEE7FFE7601CC4B272480078A042C7
:10201000BFDC00BFB5E710B503460A466F4801882C
:10202000501EC0EBC0006C4C04EB400081811A21B3
:10203000501EC0EBC00004EB400081701846FEF754
:10204000A8F9801CC1B2501EC0EBC00004EB4000D8
:1020500041705F484178501EC0EBC00004EB400067
:10206000C1705B48807800F00701501EC0EBC000D3
:1020700004EB400001710021501EC0EBC00004EBD6
:102080004000417155480088C2EBC20104EB410198
:1020900088811B20C2EBC20104EB41018870184605
:1020A000FEF777F9401CC2EBC20104EB4101487016
:1020B0004748C078C2EBC20104EB4101C8704448F4
:1020C000007900F00701C2EBC20004EB400001718F
:1020D0000021C2EBC20004EB400041713F4801887F
:1020E000501CC0EBC00004EB400081811C21501C3F
:1020F000C0EBC00004EB400081701846FEF749F9C0
:10210000511CC1EBC10104EB4101487030484179D9
:10211000501CC0EBC00004EB4000C1702C4880791B
:1021200000F00701501CC0EBC00004EB400001713F
:102130000021501CC0EBC00004EB40004171274857
:102140000188901CC0EBC00004EB400081811D2180
:10215000901CC0EBC00004EB400081701846FEF7F5
:1021600018F9401CC1B2901CC0EBC00004EB400049
:1021700041701748C179901CC0EBC00004EB4000CF
:10218000C1701348007A00F00701901CC0EBC0003A
:1021900004EB400001710021901CC0EBC00004EB77
:1021A0004000417110BD01460D48C089884204DBE2
:1021B0000B48C089401A80B27047C1F56160024A7D
:1021C0001288104480B2F7E712000020340000208B
:1021D0001C00002004000020420100201400002008
:1021E0006469002070B506460C4600222146F64878
:1021F00002F07AFE05462046611CCCB2F2490D542D
:102200002A122046611CCCB2EF490A5422463046BD
:1022100004F016F970BD70B505460C462246EA4931
:10222000284604F03EF92146E74802F078FE08B15E
:10223000012070BD0020FCE710B506210C20FFF73F
:10224000EAFF28B90020E04908700870087008709B
:1022500010BD0C20DD49887070471CB5DCA103C996
:10226000CDE90001C721DC48C174C020DA490874F7
:10227000A821D9484174CD21817441F28830D649D2
:102280000884C0208870A821D348C170CD21017175
:10229000FE214171C07C642190FBF1F201FB120030
:1022A000CA49887006226946CB480A3002F074FE9B
:1022B000002406E0C8481030005DC3490855601C82
:1022C000C4B2042CF6DB8820BF4908711320487182
:1022D00006210420FFF786FF1CBD10B5062115203E
:1022E000FFF799FF80B1B8480078BB498870B648BD
:1022F0004178B948C170B4488178B7480171B24893
:10230000C178B548417109E0C020B3498870A8215F
:10231000B148C170CD210171FE21417110BD10B5D0
:1023200008214A20FFF777FF18B3A7480078AA4989
:102330000876A5484178A8484176A3488178A64800
:102340008176A148C178A448C1769F484079A249C6
:10235000C8830846C08B4FF6FF7101EA00209E49F2
:10236000C8830846C08B9849097908449A49C883AC
:102370000AE0002098490876002197484176817646
:10238000C17600209449C88310BD70B50821332060
:10239000FFF741FF58B1002406E08B48015D8E48ED
:1023A0000A300155601CC4B2062CF6DB28E08748D1
:1023B00080784006000E844908708448007948708F
:1023C000864800888870854800880012C8700022FE
:1023D00004217D4802F088FD05467B490D712812D5
:1023E0004871002406E07848015D7B480A300155B9
:1023F000601CC4B2062CF6DB06213320FFF7F2FE88
:1024000070BD10B503211220FFF705FF38B16F48EA
:1024100000796D49097808446C49087102E0002090
:102420006A49087110BD10B504211B20FFF7F3FEA7
:1024300098B165484078654948820846408A4FF619
:10244000FF7101EA0020614948820846408A5E49DE
:10245000097808445D49488203E040F2FD705B4919
:10246000488210BD10B504211F20FFF7D4FE98B19B
:1024700055484078554988820846808A4FF6FF7152
:1024800001EA0020514988820846808A4E4909782D
:1024900008444E49888203E040F2FD704B4988822F
:1024A00010BD10B504213B20FFF7B5FE98B146489A
:1024B0004078464948830846408B4FF6FF7101EA51
:1024C0000020424948830846408B3F490978084428
:1024D0003E49488302E014203C49488310BD10B5B2
:1024E0003A48807E384908703848408B001248705E
:1024F00002213B20FFF776FE10BD10B503214720D7
:10250000FFF789FE20B1304800783049C87102E0F9
:1025100000202E49C87110BD10B52C48807C2A4976
:1025200008702A48408A0012487002211B20FFF7D9
:1025300059FE10BD10B52548007D23490870234879
:10254000808A0012487002211F20FFF74BFE10BD49
:1025500010B504212B20FFF75EFE98B11A48407891
:102560001A49C8810846C0894FF6FF7101EA002068
:102570001649C8810846C089134909780844134997
:10258000C88102E000201149C88110BD10B50421A6
:102590002F20FFF740FE98B10B4840780B49088286
:1025A0000846008A4FF6FF7101EA002007490882B9
:1025B0000846008A0449097808440449088202E070
:1025C00000200249088210BD38010020E4100020DC
:1025D00000226F2091CF00005A63002012000020DB
:1025E00010B504F0DAFEFE48007A00B110BD0024F8
:1025F00073E0C4EBC400FB4911F8100000F00300C5
:1026000000B968E0C4EBC400F64901EB4000407833
:1026100000F0800000B15EE0C4EBC400F14901EBC2
:102620004000007A05280CDDC4EBC40001EB40003B
:10263000407840F01000C4EBC401EA4A02EB4101CB
:102640004870C4EBC401E74A02EB4101888902F0FB
:1026500015FCE349498B884208DAC4EBC400E14920
:1026600011F8100000F0040000B934E0C4EBC4001D
:10267000DC4901EB40008078282806D0C4EBC40078
:1026800001EB40008078242824D1C4EBC400D54954
:1026900001EB4000407840F08000C4EBC401D14A17
:1026A00002EB41014870C4EBC400114611F8100060
:1026B00020F00200C4EBC40102F811000020C4EBBA
:1026C000C40102EB4101C8700021C4EBC40002EB5D
:1026D0004000017100BF601CC4B2802C89DB00BFC8
:1026E00084E770B505462846FDF713FE0446FF2C27
:1026F00000D170BD0020C4EB041101EB4411BA4AB3
:10270000505400BFF5E72DE9F04FC3B000241EE0A0
:102710000020C4EBC401B34A02EB41018871C4EB51
:10272000C40102EB4101C871C4EBC400114611F8A9
:10273000100020F00400C4EBC40102F811000020D6
:10274000C4EBC40102EB41018872601CC4B2802C4E
:10275000DEDB4FF0000B002410E00020A34901EB6A
:1027600084014870A14901F8240001EB84018870BC
:102770009E4901EB8401C870601CC4B2C82CECDB1C
:102780009748C089202802D143B0BDE8F08F98480F
:1027900090F850604FF6FF7000EA0626944890F8D3
:1027A0004F00304486B2F01E86B20D2096FBF0F149
:1027B00000FB116000B1E7E78948C089C01E06F13F
:1027C0002001884200D1D4E006F1250088492E314D
:1027D00011F800804FF6FF7000EA082806F1240087
:1027E000085C40441FFA80F8A8F103001FFA80F843
:1027F0004FEAE87108EB91718910A8EB810101B1F2
:10280000B7E0002000900025AFE006F12600411956
:1028100077482E3010F8019006F126002844401C1D
:1028200073492E3111F800A006F126002844801CBF
:102830000F5C781EC0EBC0006A4911F8100040F030
:102840001001781EC0EBC000664A02F810100AF0B2
:10285000100060B1781EC0EBC000114611F81000E6
:1028600040F00401781EC0EBC00002F810105F4871
:1028700000F82B7000EB8B0080F801905B4800EBB8
:102880008B0080F802A00BF1010000F0FF0B06F1B5
:1028900026002844C01C56492E31085C012813D15B
:1028A000781EC0EBC0004F4901EB40008079012148
:1028B00001EBEA010843791EC1EBC101494A02EB71
:1028C000410188714AF0800A0098411C89B2009148
:1028D00002A90F540098411C89B2009102A901F885
:1028E00000A0002001901EE00198233040492E31C5
:1028F000085CB84213D100240EE001982330204434
:10290000401C3B492E310A5C0098411C89B2009161
:1029100002A90A54601CC4B20C2CEEDB06E001983C
:102920000D3080B201900198B042DDDB00BF281D60
:1029300085B206F1260041192D482E30405C4845ED
:1029400001D1454511D1012202A8009902F0CCFA2B
:10295000C0B24290A9F10101C1EBC101214A02EBD1
:10296000410142988871002000904545FFF64DAF27
:1029700000BF002530E005F123001D492E3111F87C
:102980000090A9F10100C0EBC000164911F8100039
:1029900000F0040048B105F1250015492E31085C0E
:1029A00040F0800205F125000A5405F12301104A88
:1029B0002E32881801220D2102F096FAC0B2429000
:1029C000A9F10101C1EBC101064A02EB41014298A4
:1029D000887105F10D0085B2B542CCDB00BFD3E6AE
:1029E000E410002042010020620B00204208002079
:1029F0005A63002070B588B020226946802003F019
:102A000050FD002407E00020C4EBC401C64A02F8D0
:102A10001100601CC4B2802CF5DB002500242AE0E4
:102A2000002624E01DF8040000F00100B0B10120F0
:102A3000C5EBC501BC4A02F81100FF20C5EBC5017A
:102A400002EB410188700020C5EBC50102EB41019A
:102A50008871C5EBC50102EB4101C8711DF8040086
:102A600040100DF80400681CC5B2701CC6B2082ED8
:102A7000D8DB601CC4B2102CD2DB08B070BD70B5BE
:102A80000025FFF765FDA948C089D8B1FFF77EFD95
:102A9000A648C289A649802003F003FDA348C18946
:102AA0000022A34802F020FA0446A048008AA0426F
:102AB00003D000209D49088204E00125FFF79AFF1A
:102AC000FFF721FE7DB900209A4908704870022165
:102AD0002F20FFF787FB00209649087048700221DD
:102AE0002B20FFF77FFB70BD10B5FFF7B2FBFFF7A0
:102AF000B4FBFFF7F2FBFFF712FCFFF746FCFFF712
:102B000080FCFFF790FCFFF7ADFCFFF7F6FCFFF74A
:102B1000C8FC86480079401C844908710846007941
:102B20008449087001211220FFF75CFB042100207A
:102B3000FDF75FFEFFF7A3FF10BD2DE9F84F8046BC
:102B40007A48C2897A49802003F0ABFC78482E3855
:102B500090F850504FF6FF7000EA052574482E3863
:102B600090F84F00284485B2E81E85B2002431E079
:102B700004F123006E49085C404528D1A8F101000A
:102B8000C0EBC000684911F8100000F0040040B12B
:102B900004F125006649085C40F0800204F125003C
:102BA0000A5400260FE004F1240081196048415CBA
:102BB0006148C278C078401C5F4BD87003F10800B0
:102BC0008154701C86B20C2EEDDBBDE8F88F04F149
:102BD0000D0084B2AC42CBDB05F1250054490F5CFB
:102BE0004FF6FF7000EA072705F12400085C38441F
:102BF00087B2F81E87B2002477E005F1260001199C
:102C00004B4810F801A0D04502D0201D84B26CE0E2
:102C100005F126002044801C454911F800904648E3
:102C2000C178C078401C444AD07002F1080000F816
:102C3000019005F126002044401C3D49085C0090AD
:102C400005F126002044C01C085C01280ED1009824
:102C500040F0800000901146CA78C978491C364B74
:102C60000098D97003F10801885431E03249CA78DC
:102C7000C978491C304B0098D97003F10801885479
:102C8000002622E006F123002949085C484519D1B5
:102C90004FF0000B12E006F1240000EB0B0124487A
:102CA000415C2548C278C078401C234BD87003F1A2
:102CB000080081540BF1010000F0FF0BBBF10C0F79
:102CC000E9DB04E006F10D0086B2AE42DADB00BFBC
:102CD000201D84B205F1260001191548405C5045BD
:102CE00001D1BC4200D170E700BFBC4285DB00BF10
:102CF0006BE7FEB506460D460B226946304603F0EB
:102D0000D0FB0B21684602F036F950B1002404E0F4
:102D10001DF804002855601CC4B20A2CF8DB012001
:102D2000FEBD0020FCE7000042010020E41000206E
:102D300088630020380100203400002070B504466C
:102D40001DE06448C06840F400706249C860624891
:102D5000058800BF284602F07FF83228FADB5D487C
:102D6000C06820F400705B49C8605B48058800BFFC
:102D7000284602F071F83228FADB601EC4B2002C3B
:102D8000DFD170BD03F022F900205349088000BF55
:102D90005248008802F060F8B0F57A7FF8DBFFF760
:102DA000A3FE4FF4FA704E49088005204D49887102
:102DB00048720872FF2048700320888304F006FEE2
:102DC00040F25371032003F024F982E04648007872
:102DD000082879D2DFE800F0041E262E434B535B0F
:102DE0003E48008802F038F83D49098888420BDDEA
:102DF00039480088394908803648C06880F4007036
:102E00003449C86003F013F937480078401C36494C
:102E100008705DE0FEF757FF33480078401C3249E8
:102E2000087055E0FEF795FF2F480078401C2E49AA
:102E300008704DE02D48008802F00EF8B0F57A7F5A
:102E400007DD2548008829490880FDF7C1F9FFF70B
:102E50005CF825480078401C2349087038E002F0EF
:102E6000D7F821480078401C1F49087030E001F075
:102E700060FE1D480078401C1B49087028E002F0E5
:102E8000F9FA19480078401C1749087020E01848E2
:102E9000008801F0E1FFB0F57A7F10DD0E48008870
:102EA00013490880FFF79CFB1249086A80470D48C8
:102EB000807920B10B488079401E0A498871002032
:102EC0000949087004E0FFE700200749087000BFC7
:102ED00000BF7BE700100140120000200800002026
:102EE0000A000020E4100020060000200E00002050
:102EF0000C000020EC6E0020EF20FE4981F82E002F
:102F0000EF21FC4880F82F1080F8301080F8311045
:102F1000002180F83210F8488178F64880F83310A4
:102F2000002180F8341080F83510704770B50824FF
:102F3000FFF7E2FF01222146641CEE482E30425486
:102F4000ED222146641C425403222146641C425453
:102F500000222146641C4254A01CC1B2E54880F8FE
:102F60003410002180F8351021462E3001F0BCFFCE
:102F700005462046611CCCB2DE492E310D542A1282
:102F80002046611CCCB2DB492E310A542E394878D8
:102F900022462E3103F0EAFE70BD2DE9F041D748FC
:102FA000B0F8261EB0F8240E814207DBD348B0F8F3
:102FB000261EB0F8240E081A87B20AE0CF48B0F8EF
:102FC000240E44F62061091ACC48B0F8260E0844B5
:102FD00087B2FFF791FF082401222146641CC548EF
:102FE0002E30425469222146641C4254002221465C
:102FF000641C42542146641C42542146641C4754BC
:103000003A122146641C42542E38027F2146641C29
:103010002E3042542E38808B02122146641CB54853
:103020002E304254002600254CE0C5EBC500B449C3
:1030300001EB4000407800F08000002840D1C5EB53
:10304000C50011F8100000F00100C8B3681CC2B23E
:103050002046611C8CB2A7492E310A54C5EBC5002D
:10306000A74901EB400082782046611C8CB2A1493F
:103070002E310A54C5EBC500A14901EB400042784E
:103080002046611C8CB29B492E310A54C5EBC50009
:103090009B4901EB4000C2782046611C8CB29549E7
:1030A0002E310A54C5EBC500954901EB4000027969
:1030B0002046611C8CB28F492E310A54701C86B296
:1030C000681C85B2802DB0DB06EB8600C01D86B281
:1030D000884880F83860311280F83910A01CC1B2DD
:1030E000844880F83410A01C010A824880F835100A
:1030F000002221462E3001F0F7FE80462046611C5A
:103100008CB27C492E3101F800804FEA28222046FB
:10311000611C8CB277492E310A54774908782246CF
:1031200074492E3103F022FEBDE8F08170B50646E9
:103130000824FFF7E1FE01222146641C6D482E3071
:103140004254AEB910222046611CCCB269492E31DE
:103150000A5403222046611CCCB266492E310A541F
:1031600000222046611CCCB262492E310A541CE078
:10317000EC222046611CCCB25E492E310A54042256
:103180002046611CCCB25B492E310A5400222046F5
:10319000611CCCB257492E310A54574882792046D7
:1031A000611CCCB253492E310A54A01CC1B2514803
:1031B00080F83410002180F83510002221462E308E
:1031C00001F092FE05462046611CCCB249492E31E1
:1031D0000D542A122046611CCCB246492E310A54A5
:1031E0002E39487822462E3103F0C0FD70BD2DE9FE
:1031F000F04180460D46FFF77FFE0824012221465C
:10320000641C3C482E30425463222146641C4254C4
:1032100000222146641C42542146641C425400266C
:1032200009E018F806202046611C8CB231492E3185
:103230000A54701C86B2AE42F3DBE81CC1B22D48C2
:1032400080F83810E81C010A2A4880F83910A01CC0
:10325000C1B2284880F83410A01C010A254880F823
:103260003510002221462E3001F03EFE0746204652
:10327000611C8CB21F492E310F543A122046611C3A
:103280008CB21C492E310A542E39487822462E31F0
:1032900003F06CFDBDE8F0812DE9F0410746002602
:1032A000FFF72AFE082401222146641C11482E3013
:1032B0004254EF222146641C425425460021641CDE
:1032C000415500222146641C4254014608190D490B
:1032D0004A69394690470646A01984B20648027CDE
:1032E0002146601C84B203482E3042540248008AB2
:1032F000021209E05A630020E41000202C51002043
:1033000042010020EC6E00202046611C8CB2FE4978
:103310000A54F01CC1B2FC484155F01CC0F307220E
:10332000F948691C4254A01CC1B2F7482E3880F8F5
:103330003410A01C010AF4482E3880F83510002201
:1033400021462E3001F0D0FD80462046611C8CB213
:10335000ED4901F800804FEA28222046611C8CB21A
:10336000E9490A542E39487822462E3103F0FEFCF2
:10337000BDE8F081002407E004F10C00E249085C9C
:10338000E2490855601CC4B2062CF5DB06213F203B
:10339000FEF728FF0020FFF7C9FE102201210020C0
:1033A00003F0C8FA10220121084603F0C3FA00BF57
:1033B000FEE72DE9F041064608240325FFF79CFDB2
:1033C00001222146641CD0484254ED222146641C4F
:1033D000425400222146641C42542146641C42543B
:1033E0004EB902461019CA4A91688847284485B2E6
:1033F000601984B209E0C4490819C549CA68314650
:103400009047284485B2601984B2BF482E3880F8AE
:103410003850291280F83910601EC1B2BA482E38CF
:1034200080F83410601E010AB7482E3880F8351035
:10343000002221462E3001F057FD07462146601C30
:1034400084B2B14847543A122046611C8CB2AE494E
:103450000A542E39487822462E3103F087FCBDE805
:10346000F08118B9FF21AB4A517004E0A6492E390A
:103470004978A84A517070472DE9F0410824032685
:10348000FFF73AFD01222146641C9F484254EA227C
:103490002146641C425400222146641C42542146A9
:1034A000641C4254002521E09B4810F8252020464A
:1034B000611C8CB294490A54701C86B2964800EB89
:1034C000850042782146601C84B28F484254701CAB
:1034D00086B2914800EB850082782046611C8CB250
:1034E00089490A54701C86B2681CC5B2C82DDBDB42
:1034F00085482E3880F83860311280F83910A01CC9
:10350000C1B281482E3880F83410A01C010A7E48D0
:103510002E3880F835107F48027C2046611C8CB222
:1035200079490A547B48008A02122046611C8CB2F9
:1035300075490A5400222146734801F0D5FC07461C
:103540002046611C8CB270490F543A122046611C0F
:103550008CB26D490A542E39487822462E3103F038
:1035600005FCBDE8F0812DE9F047814608240327DA
:10357000FFF7C2FC01222146641C63484254942296
:103580002146641C425400222146641C42542146B8
:10359000641C4254B9F1000F2FD100252AE0C5EB7D
:1035A000051000EB45105D49085C00B924E0C5EB4F
:1035B000051000EB451059490A5C2046611C8CB28D
:1035C00051490A5400260EE0C5EB051000EB4510EA
:1035D00052490844401C825D2046611C8CB24A4915
:1035E0000A54701CC6B22E2EEEDB07F12F0087B2F4
:1035F000681CC5B21E2DD2DB26E04846FCF789FECA
:103600000546FF2D20D0C5EB051000EB45104349C2
:103610000A5C2046611C8CB23B490A5400260EE02D
:10362000C5EB051000EB45103C490844401C825D89
:103630002046611C8CB234490A54701CC6B22E2E2E
:10364000EEDB07F12F0087B22F482E3880F8387054
:10365000391280F83910A01CC1B22B482E3880F8DE
:103660003410A01C010A28482E3880F8351000229A
:1036700021462E3001F038FC80462046611C8CB279
:10368000214901F800804FEA28222146601C84B2BB
:103690001D484254A0F12E01487822462E3103F0F5
:1036A00065FBBDE8F08710B5002407E004F10C00CD
:1036B0001549085C15490855601CC4B2062CF5DB99
:1036C00006214A20FEF78EFD0F482E3890F83A006A
:1036D0000D492E390876084690F83B10417690F84F
:1036E0003C10817690F83D10C17690F83F00064975
:1036F0002E39C8830846C08B4FF6FF7101EA0020BF
:1037000001492E39C8830BE088630020380100206E
:10371000EC6E0020E410002042080020620B002024
:103720000846C18B90F83E000844FE49C88300203B
:10373000FFF7FCFC10BD0020FFF7F8FC00BFFEE720
:10374000704770B50824FFF7D7FB01222146641C9F
:10375000F4482E3042548A222146641C42540522E9
:103760002146641C425400222146641C4254EE4807
:10377000827E2046611CCCB2EA492E310A54EA48C6
:10378000408B02122046611CCCB2E6492E310A540D
:10379000A01CC1B2E34880F83410002180F8351035
:1037A000002221462E3001F09FFB05462046611C79
:1037B000CCB2DC492E310D542A122046611CCCB209
:1037C000D8492E310A542E39487822462E3103F03A
:1037D000CDFA70BD70B500250020D44981F82800CD
:1037E000002408E00021D148143001550020CF49C1
:1037F0000855601CC4B2082CF4DBCA4890F8396044
:103800004FF6FF7000EA0626C64890F838003044AC
:1038100086B2301F86B2C6F34704042C00DD0424B0
:1038200000BF68000D30BF492E31095CBF4814301D
:10383000415568000E30BB492E31085CBB494855E4
:10384000084690F82800401C81F82800681CC5B282
:10385000601EC0B2041EE4D1FDF7B2FA0020FFF7EB
:1038600065FC70BD10B5002408E0FF20C4EBC40166
:10387000AF4A02EB41018870601CC4B2802CF4DBBB
:103880000020A9490882FFF751FC10BD10B50024A3
:1038900008E00020C4EBC401A54A02EB4101C87254
:1038A000601CC4B2802CF4DB0020FFF73FFC10BD8D
:1038B00010B59C4890F83A009B4948830846408BD5
:1038C0004FF6FF7101EA0020974948830846418B73
:1038D000944890F83B00084493494883FEF7FFFD65
:1038E0000020FFF723FC10BD70B50824FFF704FB90
:1038F00001222146641C8B482E30425488222146E6
:10390000641C425409222146641C42540022214670
:10391000641C425400250AE082480A30425D214678
:10392000601CC4B27F482E304254681CC5B2062DBC
:10393000F2DBA01CC1B27B4880F83410002180F873
:103940003510002221462E3001F0CEFA06462046E0
:10395000611CCCB273492E310E5432122046611CC8
:10396000CCB270492E310A542E39487822462E3175
:1039700003F0FCF970BD002408E004F10C00694973
:103980002E31085C6B490855601CC4B2062CF4DB70
:1039900006213320FEF726FC0020FFF7C7FB00BFFF
:1039A000FEE710B540F2FD705F4948828882002032
:1039B000C882FEF7BFFDFEF7AFFD0020FFF7B6FBA4
:1039C00010BD70B5574890F83D0000F01F015548F4
:1039D00080F83D100C2519E0524A2E32505DC21776
:1039E00000EB12721211A0EB02134E4A2E32515DFF
:1039F000CA1701EB1272121102EB820203EB4202B0
:103A0000D3B2484A2E325355681CC5B2122DE3DB9F
:103A100000250024434890F83A40240190F83B00E8
:103A2000044464013F4890F83C00044464013D486C
:103A300090F83D000444A4013A4890F83E00044444
:103A4000A401384890F83F0004443A490C70200A19
:103A50004870200C8870200EC87004210C20FEF7DE
:103A6000C1FB0020FFF762FB70BD10B52D4890F838
:103A70003A00314908702B4890F83B0000F01F00D5
:103A80004870284890F83C008870264890F83B0021
:103A90004011C870234890F83D0000F03F000871C5
:103AA000204890F83E0048711E4890F83F00887109
:103AB00003F009FD0020FFF739FB10BD10B5002011
:103AC000194908711B49087001211220FEF78AFB71
:103AD0000020FFF72BFB10BD002408E004F10C00D0
:103AE00010492E31085C13490855601CC4B2062CDD
:103AF000F4DB06210420FEF775FB002408E004F146
:103B0000120008492E31085C0A490855601CC4B2ED
:103B1000042CF4DB04211520FEF764FB014890F827
:103B200044000BE05A630020E41000200211002042
:103B3000420100203801002064690020FA49087021
:103B400001210846FEF74EFB0020FFF7EFFA00BF09
:103B5000FEE770B50824FFF7CFF901222146641C67
:103B6000F248425472222146641C425404222146E7
:103B7000641C425400222146641C42542D222146DA
:103B8000601CC4B2E9484254A01CC1B2E7482E38B8
:103B900080F83410002180F83510002221462E30A4
:103BA00001F0A2F905462046611CCCB2DF490D5454
:103BB0002A122046611CCCB2DC490A542E394878BE
:103BC00022462E3103F0D2F870BD70B50824FEF7FE
:103BD00033FBFFF791F901222146641CD34842547C
:103BE00071222146641C42540E222146641C425418
:103BF00000222146641C4254CD48C2782046611CF4
:103C0000CCB2CA490A54CA4882782046611CCCB258
:103C1000C6490A54C64802792046611CCCB2C34941
:103C20000A540819FCF7C7FD201DC4B2BE4802782B
:103C30002046611CCCB2BD490A54BB48427820469C
:103C4000611CCCB2B9490A54B74882782046611C3D
:103C5000CCB2B6490A54B448C2782046611CCCB2F2
:103C6000B2490A54A01CC1B2B0482E3880F83410B2
:103C7000002180F83510002221462E3001F034F961
:103C800005462046611CCCB2A8490D542A12214693
:103C9000601CC4B2A5484254A0F12E0148782246C7
:103CA0002E3103F063F870BD70B50824FEF7D5FA25
:103CB000FFF722F901222146641C9C4842547022DD
:103CC0002146641C425410222146641C42540022A6
:103CD0002146641C425406229349042002F0E1FB71
:103CE000002508E09048425D2046611CCCB28F4917
:103CF0000A54681CC5B2042DF4DB2846691CCDB2F9
:103D000089490A5C2046611CCCB288490A5428467D
:103D1000691CCDB284490A5C2046611CCCB283493F
:103D20000A54FEF7DAFA002509E080482C38425D93
:103D30002146601CC4B27D484254681CC5B2042DA3
:103D4000F3DB002509E079481638425D2046611C06
:103D5000CCB276490A54681CC5B2042DF3DB734813
:103D60002E38827F2046611CCCB270490A54A1F1E2
:103D70002E00C08B02122046611CCCB26B490A5443
:103D8000A01CC1B269482E3880F83410002180F898
:103D90003510002221462E3001F0A6F806462046B6
:103DA000611CCCB261490E5432122046611CCCB267
:103DB0005E490A542E39487822462E3102F0D6FF49
:103DC00070BD2DE9F041FFF797F808240122214644
:103DD000641C5648425468222146641C4254002206
:103DE0002146641C42542146641C4254002600258E
:103DF0003EE0C5EBC5004F4911F8100000F001008E
:103E0000A0B3681CC2B22046611C8CB247490A5458
:103E1000C5EBC500474901EB400082782046611C94
:103E20008CB242490A54C5EBC500424901EB40003F
:103E300082792046611C8CB23C490A54C5EBC5000E
:103E40003C4901EB4000C27A2046611C8CB23749E4
:103E50000A54C5EBC500374901EB4000827A204681
:103E6000611C8CB231490A54701C86B2681C85B240
:103E7000802DBEDB06EB8600C01C86B22B482E3898
:103E800080F83860311280F83910A01CC1B2274880
:103E90002E3880F83410A01C010A24482E3880F8EF
:103EA0003510002221462E3001F01EF8074620462C
:103EB000611C8CB21D490F543A122046611C8CB211
:103EC0001A490A542E39487822462E3102F04EFF04
:103ED000BDE8F08110B5002114482E3890F83A0062
:103EE000401EC0EBC000134A02EB4000C17100202D
:103EF000FFF71CF910BD2DE9F041FEF7FDFF082486
:103F000001222146641C0948425466222146641C51
:103F1000425400222146641C42542146641C4254EF
:103F20000026002526E000003801002088630020DC
:103F3000E410002042010020C5EBC500FE4901EB62
:103F40004000C079052813DD681CC2B22046611C00
:103F50008CB2FA490A54C5EBC500F74901EB4000A1
:103F600082782046611C8CB2F4490A54701C86B2D7
:103F7000681C85B2802DDFDB032000EB460086B293
:103F8000EE482E3880F83860311280F83910A01CC5
:103F9000C1B2EA482E3880F83410A01C010AE74864
:103FA0002E3880F83510002221462E3000F09CFF7C
:103FB00007462146601C84B2E04847543A12214625
:103FC000601C84B2DD484254A0F12E01487822469C
:103FD0002E3102F0CBFEBDE8F08110B50020D849AB
:103FE000C87101214720FEF7FDF80020FFF79EF879
:103FF00010BD70B50824FEF77FFF01222146641C26
:10400000CE48425464222146641C42540422214674
:10401000641C425400222146641C4254C848C279A0
:104020002046611CCCB2C5490A54A01CC1B2C34889
:104030002E3880F83410002180F8351000222146F7
:104040002E3000F051FF05462046611CCCB2BB4922
:104050000D542A122046611CCCB2B8490A542E399C
:10406000487822462E3102F081FE70BD2DE9F041E4
:10407000FEF742FF082401222146641CAF48425447
:1040800062222146641C425400222146641C425490
:104090002146641C4254002600251DE0C5EBC500E6
:1040A000A54911F8100000F0020098B1681CC2B2D6
:1040B0002046611C8CB2A1490A54C5EBC5009E493B
:1040C00001EB400082782046611C8CB29B490A5467
:1040D000701C86B2681C85B2802DDFDB032000EBEC
:1040E000460086B295482E3880F83860311280F844
:1040F0003910A01CC1B291482E3880F83410A01C91
:10410000010A8E482E3880F83510002221462E30C4
:1041100000F0EAFE07462146601C84B287484754F7
:104120003A122146601C84B284484254A0F12E0108
:10413000487822462E3102F019FEBDE8F081804811
:10414000808A7F49498A884214DB7D48808A7C497D
:10415000498A401AB0F5257F04DB4FF42570784971
:10416000C88223E07648808A7549498A401A744992
:10417000C8821BE07248408AC0F500407049898AB5
:104180000844A0F2FD70B0F5257F04DB4FF42570E4
:104190006B49C8820AE06A48408AC0F50040684915
:1041A000898A0844A0F2FD706549C8826448C08AC3
:1041B00070472DE9F14F9AB04FF00009CB46FEF75A
:1041C0009BFE09240BF1010B60222146641C5B4815
:1041D000425400222146641C42542146641C42542D
:1041E0005748827C2146641C544842545448408AB3
:1041F00002122146641C514842545148027D214616
:10420000641C4E4842544E48808A02122146641C67
:104210004A48425401460819FCF7CDFA241D0027EC
:104220000025C9E01A9801285DD1C5EBC5004249B7
:1042300001EB4000407800F08000002852D1C5EB2F
:10424000C50011F8100000F0010000284AD0681CD9
:10425000C2B22046611C8CB238490A54C5EBC50075
:10426000354901EB400082782046611C8CB233490D
:104270000A54C5EBC500304901EB400042782046A6
:10428000611C8CB22D490A54C5EBC5002A4901EBCB
:104290004000C2782046611C8CB228490A54C5EB04
:1042A000C500254901EB400002792046611C8CB213
:1042B00022490A54C5EBC5001F4901EB4000807834
:1042C00038280DD16B1CD9B209EB8903EC460CEBF5
:1042D00083001C4B1A69904709F1010000F0FF09A7
:1042E000781C87B266E0C5EBC500134911F81000D1
:1042F00000F0010000285DD0681CC2B22046611C9D
:104300008CB20E490A54C5EBC5000B4901EB4000C5
:1043100082782046611C8CB208490A54C5EBC5005E
:10432000054901EB4000407820F010022046611C56
:104330008CB202490A5407E0420100208863002041
:10434000E4100020EC6E0020C5EBC500F24901EB43
:104350004000C2782046611C8CB2F0490A54C5EB7B
:10436000C500ED4901EB400002792146601C84B292
:10437000EA484254C5EBC500E74901EB40004078EC
:1043800000F08000A0B9C5EBC50001EB40008078CB
:1043900038280DD16B1CD9B209EB8903EC460CEB24
:1043A0008300DF4B1A69904709F1010000F0FF0913
:1043B000781C87B2681C85B2802DFFF633AF07EBFF
:1043C00087000B3087B2D5482E3880F83870391204
:1043D00080F83910D348408AD249898A884244D02B
:1043E000FFF7ADFE0BF1010000F0FF0B612220464C
:1043F000611C8CB2C9490A5426460021601C84B253
:10440000C648815500222046611C8CB2C3490A541B
:10441000C448478A9046002517E0C048011938462D
:10442000FEF767FC30B104F10A0084B208F10A001B
:104430001FFA80F805F10B0085B207F10B0087B277
:10444000B7F5004F01DB40F2FD77B648C08AA842BD
:10445000E3DC08F10300C1B2B048815508F1030064
:10446000C0F30722AD48711C4254B9F1000F3BD094
:104470000BF1010000F0FF0B64222146601C84B2A6
:10448000A648425426460021601C84B2A3488155A8
:1044900000222046611C8CB2A0490A5490469246E4
:1044A00014E00AEB8A026B4603EB82019B4A101967
:1044B000142200F071FD04F1140084B208F114001C
:1044C0001FFA80F80AF1010000F0FF0ACA45E8DB94
:1044D00008F10300C1B29148815508F10300C0F30F
:1044E00007228E48711C42548C482E3880F836B012
:1044F0008C48027C2046611C8CB288490A54894849
:10450000008A02122046611C8CB284490A54A01C05
:10451000C1B282482E3880F83410A01C010A7F48AE
:104520002E3880F83510002221462E3000F0DCFCB9
:1045300019901998C2B22146601C84B2774842543F
:10454000199802122046611C8CB274490A542E3903
:10455000487822462E3102F009FC1BB0BDE8F08FEE
:1045600070B504460D460A2D01DA002070BD207892
:10457000FE2808D16078FE2805D1A078FE2802D157
:10458000E078FE2803D0FEF7D1FC0020EEE7E679C4
:104590004FF6FF7000EA0626A079304486B2AE429C
:1045A00001D00020E2E72946204600F0B8FC08B917
:1045B0000020DBE70120D9E72DE9F04104460E4653
:1045C000174631462046FFF7CBFF08B9BDE8F0811A
:1045D000607A852871D020DC69286FD00ADCA0F1D0
:1045E000600009286BD2DFE800F0386A8AF38D900A
:1045F00093A4A70081287BD008DC702879D071288B
:1046000078D0722877D0802859D1A1E0822873D041
:10461000832872D08428F7D1A5E08E286ED009DCDB
:10462000A0F186000828DDD2DFE800F0FEA0A2A5F8
:10463000B1B4B7B9EC286ED008DC8F2874D09028BC
:1046400073D0942872D0EA28DED1AFE0ED286ED086
:10465000EE286DD0EF28D7D1B5E03248407A20B1AE
:104660003048407A401E2F4948722E48007A20B1C7
:104670002C48007A401E2B4908722A48807918B1CC
:104680000120FEF753FD14E1F01E205C60BB2548BD
:10469000408A2449898A884226D02248408A214972
:1046A000C98A0844B0F5004F0ADA1E48408A1D49FD
:1046B000C98A08441B4948820CE099E0E3E0E9E03C
:1046C0001848C08A1749498A0844A0F5F0400338C1
:1046D00014494882FDF720FF1248407920F001007C
:1046E000104948710020C8823846FFF762FDE0E0BB
:1046F00030E024E026E028E02FE031E03EE0FFF764
:10470000B5FCD6E0FFF775FCD3E0FFF766FCD0E020
:10471000FFF7F1FBCDE04CE0420100208863002070
:10472000EC6E0020E41000202BE02DE03AE044E0A5
:1047300047E0FFF7CFFBBCE0FFF743FBB9E0FFF733
:10474000B3FAB6E0FFF741FAB3E0FFF702FAB0E0E0
:10475000FFF7C2F9FFF7B2F9ABE0FFF786F9A8E07F
:10476000FFF72FF9A5E0FFF71CF9A2E0FFF703F927
:10477000FFF7BAF89DE0FFF79BF89AE0FFF786F89D
:1047800097E0FFF76FF894E0FFF724F891E0FEF769
:10479000D8FF8EE0FEF7D4FF8BE0FEF7CCFFFEF7EC
:1047A00082FF86E0207BFEF7DEFE82E0FEF764FEFD
:1047B0007FE0207BFEF755FE7BE0207BFEF7F9FDD6
:1047C00077E0FEF7D7FD207BFEF766FD71E0FFE79F
:1047D000E57A4FF6FF7000EA0525A07A284485B2F5
:1047E000E81E85B2294604F10C00FEF700FD60E0EA
:1047F0000520F94908720846C079401CC87101219A
:104800004720FDF7EFFCE57A4FF6FF7000EA05253B
:10481000A07A284485B2E81E85B201F008FCEF4971
:104820000D702812487000E01EE002212B20FDF7D9
:10483000D9FC2A4604F10C01802001F001FE00227F
:10484000294604F10C0000F04FFB0546E3490D70CA
:104850002812487002212F20FDF7C4FC0020FEF72B
:1048600065FCFEF70CF924E0207BDB4988700846E4
:104870008078DA49087001210846FDF7B3FC002072
:10488000FEF754FC15E0D6484078D3490870FEF78F
:1048900084FB0EE0A07A032808DBA17AC91ECAB205
:1048A000607A04F10C01FBF74AFF01E0FEF73EFBE2
:1048B00000BF00BF00BF89E62DE9F04104460F4666
:1048C0009046207855284CD16078AA2849D1A07804
:1048D000552846D1E078AA2843D1BF48C07A40B1D4
:1048E000FEF75BFBBF48B0F8241EA0F8261EBDE80B
:1048F000F0816579A67905EB0620B9498883002502
:104900002AE00020B8494870281D215CB54880F88D
:10491000221EE81D86B21AE0A15DB248B0F8262E2C
:10492000B0F8260E401C83B2AE48A0F8263EAE4832
:10493000801C8154AB48B0F8260E44F620618842B2
:1049400003D10021A748A0F8261E701C86B205F2EC
:10495000FB10B042E0DC85B2BD42D2DBFEF71DFBAE
:1049600004E0424639462046FFF726FE00BFBEE778
:1049700010B500BF152002F003FB044694B104F00B
:10498000F001152001F0FBFF04F08000802802D127
:1049900007209349087004F04000402802D1082005
:1049A0008F490870172002F0EBFA044604F0070064
:1049B000082822D2DFE800F00405090D1115191DA1
:1049C00010BD00208649487017E0012084494870D6
:1049D00013E00020824948700FE0022080494870AF
:1049E0000BE000207E49487007E001207C494870B8
:1049F00003E000207A49487000BF00BF784948783A
:104A0000022102F0ADF80446754948782246022199
:104A100001F090FF04F0010048B1052070490870D2
:104A2000724801886E484278243020F8121004F051
:104A3000020010B904F00800B0B1694840780328BA
:104A400012D0674948781022012101F073FF6449B0
:104A5000487802F0E1F8624840785F494978884236
:104A600002D1FF205C49487004F00400002853D0B4
:104A70005E4801885A484278243020F8121058497C
:104A800048782E3102F0F5F9554988850846407876
:104A9000032810DA50484179514842780820904064
:104AA000801C81434C4841714D48818D00222E303D
:104AB000FFF702FF30E04848407920F020004649E7
:104AC0004871474890F82E0045490876084690F806
:104AD0002F10417690F83010817690F83110C17621
:104AE00090F832003E49C8830846C08B4FF6FF71EC
:104AF00001EA00203A49C8830846C18B90F8330088
:104B000008443749C8830846808D083881B201229D
:104B100033483630FFF7D0FE04F0100010B1032008
:104B20002F490870172002F02BFA00B122E700BFCE
:104B300046E710B52A48007806287DD2DFE800F065
:104B4000030F2D45474632202949088002F012FA0A
:104B50002648008822498884012008707AE02E20A7
:104B600002F00EFA00F0010058B101F072FF01F0FE
:104B7000CFFF02201A4908704FF4FA701C490880D0
:104B80000AE01749888C00F067F941F288318842C1
:104B900002DD0020124908705CE0002002F03CF8C1
:104BA000012002F039F8022002F036F8032000F06C
:104BB00015FD0E4800880A4988840C480188084879
:104BC000C18403200649087044E000BF00BFFFF71E
:104BD000CFFE002428E00000E4100020380100206F
:104BE0005A6300202C5100202C11002012000020BC
:104BF0000A0000208D4931F8140000F02DF943F629
:104C0000982188420EDD8A480188884820F81410CF
:104C1000204602F001F8874840790821A140084366
:104C200084494871601CC4B2032CE3DB814840799D
:104C300000F01800182800E007E005D17D48407911
:104C400040F002007B49487104E000207749243994
:104C5000087000BF00BF10BD2DE9F04780468946AF
:104C600015460824FEF748F901222146641C6F48C6
:104C70000A3042542146641C00F80180E81CC2B28C
:104C80002146641C69480A30425400222146641CB3
:104C90004254002609E019F806202046611CCCB2D7
:104CA00062490A310A54701CC6B2AE42F3DBA01C42
:104CB000C1B25E48243880F83410002180F83510E5
:104CC000002221462E3000F00FF907462046611CD5
:104CD000CCB256490A310F543A122046611CCCB26C
:104CE00052490A310A542E39487822462E3102F0B0
:104CF0003DF8BDE8F087F0B5C1B004460F46154653
:104D00001E464FF4807101A803F088F849484078A6
:104D1000FF287DD036B1012E23D0022E43D0032EA2
:104D20001ED15FE08DF80C50EB208DF80D00200EA9
:104D30008DF80E00200C8DF80F00200A8DF8100061
:104D4000E0B28DF811002A4639460DF1120000F04C
:104D500023F905F10E023749487801A902F006F857
:104D600061E035488078401EC0EBC000334901EB5C
:104D7000400080788DF80A002F4880788DF80B006D
:104D80008DF80C50CC208DF80D002A4639460DF1D7
:104D90000E0000F001F92749487805F10A0201A93F
:104DA00001F0E4FF3FE08DF80C50CD208DF80D00B0
:104DB000200E8DF80E00200C8DF80F00200A8DF8C3
:104DC0001000E0B28DF811002A4639460DF11200AC
:104DD00000F0E2F805F10E021649487801A901F049
:104DE000C5FF20E08DF80C50CE208DF80D00200E70
:104DF0008DF80E00200C8DF80F00200A8DF81000A1
:104E0000E0B28DF811002A4639460DF1120000E09B
:104E10000AE000F0C1F805F10E020649487801A940
:104E200001F0A4FF00BF00BF41B0F0BD7E630020D1
:104E300012000020E4100020340000204201002075
:104E400007E0002101E04A1C91B20A29FBDB421E67
:104E500090B20028F5DC704701466448008888421B
:104E600004DB62480088401A80B270474FF6FF703A
:104E7000401A5E4A1288104480B2F6E701465C4848
:104E80000088884204DB5A480088401A80B2704784
:104E90004FF6FF70401A564A1288104480B2F6E767
:104EA00010B50022534B1B884340524C23800021F5
:104EB00017E0504B1B7803F001024E4B1B885B1030
:104EC0004C4C238023461B88C3F30E03238032B14E
:104ED00023461B884AF201046340464C23804B1C46
:104EE000D9B20829E5DB10BDF0B505460E461746D8
:104EF0004FF6FF703F490880002404E0285DFFF76B
:104F0000CFFF601C84B2B442F8DB2FB1394800886F
:104F100000EB20203749088036480088F0BD30B5C6
:104F200005460C464FF6FF7032490880A01E81B23C
:104F300000222846FFF7D8FF2E480178A01E285CE3
:104F4000814208D1601E285C2A490988B0EB212FD4
:104F500001D1012030BD0020FCE710B502460B4610
:104F60000020002104E0545C0444E0B24C1CE1B297
:104F70009942F8DB10BD70B505460C46601EC1B203
:104F80002846FFF7EAFF0646601E285CB04201D1C2
:104F9000012070BD0020FCE702B9704700BF11F886
:104FA000013B00F8013B531E9BB21A1EF7D100BF14
:104FB000F3E701B9704700BF002200F8012B4A1E39
:104FC00092B2111EF8D100BFF4E7F0B50446DDE956
:104FD000055600202046C0010844800010444000CF
:104FE00018448001284400023044F0BD1200002023
:104FF000140000201000002002468A4202DC881AB9
:1050000080B2704744F62060801A084480B2F8E706
:1050100070B5F848B0F8261EB0F8240E814207DBC0
:10502000F448B0F8261EB0F8240E081A86B20AE03A
:10503000F048B0F8240E44F62061091AED48B0F8A3
:10504000260E084486B2EC48007820B101282ED004
:1050500002282BD1FBE0E748B0F8260E28B9E74834
:105060000188E448A0F8281E20E0E348407828B9E9
:10507000E348006840F48070E1490860DD49B1F818
:10508000280EFFF7E9FEB0F57A7F05DDB6F5FA6F79
:1050900002DC0220D84908700120D7490870800737
:1050A000008840F001004FF080410880E7E0D348DD
:1050B0000088D449A1F800041420D3498872CE484E
:1050C000407800285FD1D148007800B9D7E00020AF
:1050D000CE490870C74AB2F8261EB2F8240EFFF770
:1050E0008BFF0546B5F5FA7F01DB4FF4FA755520C5
:1050F000C4490873AA21C348417355218173AA2169
:10510000C173BC4890F8221EBE48017400241DE003
:10511000B848B0F8241EB0F8240E401C82B2B5483E
:10512000A0F8242EB448801C425CB6480C30611DA7
:105130004254B048B0F8240E44F62061884203D1AE
:105140000021AC48A0F8241E601C84B2AC42DFDB16
:10515000AF48406C20F00100AD494864A9480C30CC
:105160000865681D88640846406C40F0010048648A
:10517000A048B0F8241EB0F8260E814266D1022065
:105180009D49087062E0A148007800B977E00020EE
:105190009E49087055209F4981F82E00AA219D48FC
:1051A00080F82F10552180F83010AA2180F8311096
:1051B000904890F8221E974880F83210964801785F
:1051C000944880F83310944800880112914880F880
:1051D000341000241DE08748B0F8241EB0F8240ED7
:1051E000401C82B28348A0F8242E8348801C425C75
:1051F00088482E30E11D42547E48B0F8240E44F613
:105200002061884203D100217A48A0F8241E601C46
:1052100084B2B4F5FA7FDEDB7B49087840F2FB12FA
:105220007C492E3101F0A2FD7B480088401C7A4960
:1052300008807048B0F8241EB0F8260E814205D1CF
:1052400002206D49087000207349088017E04FF074
:105250008040008820F001004FF08041088000214C
:105260006448A0F8261EA0F8241E6548006820F4B3
:1052700080706349086000205F49087000BF00BF6C
:1052800070BD70B504460E466148406C20F00100C8
:105290005F494864084604658664406C40F001003C
:1052A0004864564800885749A1F8000425782D0223
:1052B000607805442D02A07805442D02E07805446D
:1052C000301FC2B20223211D2846FFF714FD70BD16
:1052D0004C494978491CC8B20CE0C0EBC0014F4AA8
:1052E00002EB41018978282902D14649487070476C
:1052F000411CC8B28028F0DB42494978FF2900D11F
:10530000F5E700200CE0C0EBC001444A02EB41018C
:105310008978282902D13B494870E8E7411CC8B286
:10532000384949788142EEDAFF21364A517000BF90
:10533000DDE7552033490873AA21324841735521CE
:105340008173AA21C173704770B5054600245522A8
:105350002146641C2B48801C4254AA222146641C0E
:10536000425455222146641C4254AA222146641C00
:1053700042542146641C455401222146641C425477
:1053800000222146641C42542146641C42540421DC
:10539000001DFFF7A9FD06462146641C1948801C24
:1053A000465432122146641C4254801EA0F8FE432B
:1053B00070BD70B504460E4625782D026078054410
:1053C0002D02A07805442D02E0780544301FC2B2BA
:1053D0000223211D2846FFF78EFC2078552808D18E
:1053E0006078AA2805D1A078552802D1E078AA28AB
:1053F00016D070BD2C5100202C110020120000206E
:105400000C080140585F0020E41000201800002024
:10541000000002405A6300201600002042010020D4
:10542000301F81B2201DFFF77AFD00B9E1E70021AE
:105430002079401EC0EBC000634A02EB40000172BD
:105440002079401EC0EBC000114601EB40004078BF
:1054500020F010012079401EC0EBC00002EB40009C
:10546000417040F2F2312046FFF7A3FD00BF00BFBC
:1054700000BFBEE710B555480078062818D2DFE80F
:1054800000F0035169808C5F5049B1F80004FFF7C8
:10549000E3FC41F28831884243DB4D4800884B49A8
:1054A000A1F80004FFF714FF48484078FF2800D116
:1054B00088E001204549087008464078C0EBC000EC
:1054C000414901EB4000007A032810DB3F48407857
:1054D000C0EBC00001EB4000407840F010003B49B9
:1054E0004978C1EBC101384A02EB410148703748A5
:1054F0004078C0EBC000344901EB4000007A03283B
:105500000FDA32484078C0EBC00001EB4000007A6F
:10551000401C2E494978C1EBC1012B4A02EB4101E5
:1055200008724FE029494978491CC8B2FFF70CFFBF
:10553000274800882549A1F800040220087041E0AE
:10554000224890F8FE130C30FFF733FF00201F496C
:10555000087037E01F48006840F480701D490860FB
:105560001A49B1F80004FFF777FC0A2808DB17484E
:10557000B0F8FE13801CFFF784FE03201349087067
:1055800020E01548806C012806D8114800880F4992
:10559000A1F800040420087014E00C49B1F80004DC
:1055A000FFF75AFC08280CDB0A48006820F48070DA
:1055B00008490860064800880449A1F80004002052
:1055C000087000BF00BF10BD42010020585F0020DE
:1055D000120000200C0801400000024070B5054692
:1055E00041F28B320421284601F0DFFA0222002129
:1055F000284601F09FF901221146284601F09AF948
:105600000B48068800BF3046FFF726FC0528FADB6A
:105610000321284601F0A4FA0446222C06D01022C9
:105620000121284601F086F9002070BD0120FCE729
:105630001200002010B50246002000BF0001C01D6E
:105640000001C01D0004F84B53431124B3FBF4F3D5
:10565000B3FBF1F35B1EC3F30903184410BDF34819
:10566000806940F00100F14988610846806940F096
:1056700004008861EE48006820F47F20EC4908604F
:105680000846006840F438200860704770B5E74865
:10569000006940F00070E54908610846006920F0A3
:1056A000007008610846C06940F00070C861E148B8
:1056B000006840F00100DF49086005E02846691CE9
:1056C000CDB2C82800DD70BDDA48001D006800F0CA
:1056D00001000028F2D00025D648006820F0020022
:1056E000D449086041F288312420FFF7A3FFD14953
:1056F0001C310860D048048800BF2046FFF7ACFB8F
:105700000528FADBCD48006840F00100CB4908606D
:10571000CA480C30006840F00300C8490C310860EA
:10572000C648001D006820F00300C449091D086038
:10573000C2481430006820F00100C04914310860EC
:105740000846006840F0020008600020BB49403174
:1057500008600021B94844300160001D0160001D4F
:105760000160B6481C30006840F00300B3491C31AA
:105770000860B24800680020B0490860AD48006881
:1057800040F04000AB4908600846006820F0010086
:10579000086005E02846691CCDB2C82800DD92E704
:1057A000A448001D006800F001000028F2D1A248C2
:1057B000048800BF2046FFF74FFB0528FADB00BF37
:1057C00081E702209E49087070470246002011B10F
:1057D000012911D107E0D208C2F38940994B03EAAD
:1057E000C223184308E05305D808C2F3D323184353
:1057F000C00040F0040000BF00BF704710B58D48E6
:105800000C30006800F0030000287CD000BF8B48FB
:105810004C38006800F00F00894948720846407A09
:10582000082801DB082048728448503800686FF06F
:10583000604101EAD004A00CC4F3110100EBC120C7
:105840007F4948617D484838006848707B4848383F
:105850000068010A7A488170784848380068010C6D
:105860007748C170754848380068000E744908715F
:10587000724844380068C1B2714841716F48443879
:105880000068010A6E4881716C4844380068010C58
:105890006B48C171694844380068000E6849087255
:1058A00048690121FBF7B4FC62480C30006840F005
:1058B000200060490C31086000BF5E480C30006871
:1058C00000F020000028F8D15A480C30006800F0A1
:1058D000030000B19BE757480C30006800F010004F
:1058E00038B154480C30006820F0100051490C3198
:1058F000086050480C30006800F0080018B14D48AE
:105900000C30006800E004E020F0080049490C3148
:10591000086048481030006800F0030000287CD080
:1059200000BF46483C38006800F00F004449487208
:105930000846407A082801DB082048723F48403872
:1059400000686FF0604101EAD004A00CC4F31101BB
:1059500000EBC1203A49486138483838006848703F
:10596000364838380068010A35488170334838387D
:105970000068010C3248C170304838380068000EA9
:105980002F4908712D4834380068C1B22C48417144
:105990002A4834380068010A294881712748343878
:1059A0000068010C2648C171244834380068000E94
:1059B0002349087248690121FBF72AFC1D48103071
:1059C000006840F020001B491031086000BF1948F2
:1059D0001030006800F020000028F8D11548103081
:1059E000006800F0030000B19BE712481030006827
:1059F00000F0100038B10F481030006820F010009F
:105A00000C49103108600B481030006800F00800A5
:105A100018B108481030006800E004E020F00800E9
:105A200004491031086010BD40420F0000100240D0
:105A3000040801400064004012000020006600409D
:105A40001C00002000F8FF1F10B5FFF708FEFFF74D
:105A50001DFE10BD022802D003280ED106E0F94930
:105A6000096841F40061F74A116006E0F5490968E8
:105A700041F02001F34A116000BF00BF70470228C7
:105A800002D003280ED106E0EF49C96821F4805105
:105A9000ED4AD16006E0EB49096821F48071E94ADA
:105AA000116000BF00BF70470146022902D00329E0
:105AB0000CD105E0E44A926802F48062100A05E025
:105AC000E04A121F126802F0400000BF00BF70479A
:105AD000022802D003280ED106E0DB49C96841F450
